:100000000C9456000C9475000C9475000C947500BB
:100010000C9475000C9475000C9475000C9475008C
:100020000C9475000C9475000C9475000C9475007C
:100030000C9475000C9475000C9475000C9475006C
:100040000C9475000C9475000C9475000C9475005C
:100050000C9475000C9475000C9475000C9475004C
:100060000C9475000C9475000C9475000C9475003C
:100070000C9475000C9475000C9475000C9475002C
:100080000C9475000C9475000C947500C100C800A8
:10009000D900EA00FB000C011D012E015401590199
:1000A0005E0164016A01700176017C0111241FBEAA
:1000B000CFEFD0E4DEBFCDBF11E0A0E0B1E0E6E5D8
:1000C000F3E000E00BBF02C007900D92AE30B10725
:1000D000D9F721E0AEE0B1E001C01D92A031B20736
:1000E000E1F70E9487010C94A9010C940000CF93C2
:1000F000DF9300D01F92CDB7DEB789837B836A83FD
:1001000089818A3031F48A819B81BC018DE00E9413
:10011000770080EC90E0FC018081882F90E0807275
:100120009927892BB1F386EC90E02981FC0120838B
:1001300080E090E00F900F900F90DF91CF910895A5
:10014000CF93DF931F92CDB7DEB780E290E0FC0142
:1001500080818095898380910E0190910F01CC015F
:10016000A0E0B0E040E050E027E030E0841B950BD9
:100170002817390708F483C08A5B9F4FFC010C9451
:10018000A00181E090E090930F0180930E0177C071
:100190008981813039F482E090E090930F0180935F
:1001A0000E016DC081E090E090930F0180930E01ED
:1001B00066C08981813039F483E090E090930F012B
:1001C00080930E015CC082E090E090930F018093D9
:1001D0000E0155C08981813039F484E090E090931C
:1001E0000F0180930E014BC083E090E090930F01CC
:1001F00080930E0144C08981813039F485E090E01C
:1002000090930F0180930E013AC084E090E09093A8
:100210000F0180930E0133C08981813039F486E06B
:1002200090E090930F0180930E0129C085E090E04B
:1002300090930F0180930E0122C08981813039F49F
:1002400087E090E090930F0180930E0118C086E044
:1002500090E090930F0180930E0111C0898181304D
:1002600039F481E090E090930F0180930E0106C075
:1002700087E090E090930F0180930E010000809141
:100280000E0190910F01CC01A0E0B0E040E050E001
:1002900027E030E0841B950B2817390798F1825B23
:1002A0009F4FFC010C94A00185E290E0FC011082BC
:1002B00029C085E290E0FC01108224C085E290E034
:1002C00020E2FC0120831EC085E290E020E1FC01D9
:1002D000208318C085E290E028E0FC01208312C052
:1002E00085E290E024E0FC0120830CC085E290E0F0
:1002F00022E0FC01208306C085E290E021E0FC01C1
:100300002083000000000F90DF91CF910895CF93DC
:10031000DF93CDB7DEB781E290E0FC01108282E28C
:1003200090E02FEFFC01208384E290E02FEFFC01AE
:10033000208385E290E0FC0110820E94A000FDCFA6
:10034000EE0FFF1F0024001C0BBE0790F691E02D5E
:060350000994F894FFCFB0
:0E035600000000020000000077000000000020
:00000001FF
